C51 COMPILER V9.60.0.0   MAIN                                                              11/30/2021 12:54:12 PAGE 1   


C51 COMPILER V9.60.0.0, COMPILATION OF MODULE MAIN
OBJECT MODULE PLACED IN .\Objects\main.obj
COMPILER INVOKED BY: D:\kile5\C51\BIN\C51.EXE main.c OPTIMIZE(8,SPEED) BROWSE DEBUG OBJECTEXTEND PRINT(.\Listings\main.l
                    -st) TABS(2) OBJECT(.\Objects\main.obj)

line level    source

   1          #include <REGX52.H>
   2          sbit Buzzer = P1 ^ 5;
   3          sbit k1 = P3^1;
   4          sbit k2 = P3^0;
   5          sbit k3 = P3^2;
   6          
   7          #define uchar unsigned char
   8          #define uint unsigned int
   9          #define ulong unsigned long
  10          uchar th0_h, tl0_l, time;
  11          uint key;
  12          ulong i, j;
  13          
  14          
  15          code uchar th0high_8[] = {
  16          
  17            0xF2, 0xF3, 0xF5, 0xF5, 0xF6, 0xF7, 0xF8, //低音1234567
  18          0xF9, 0xF9, 0xFA, 0xFA, 0xFB, 0xFB, 0xFC, 0xFC,//1,2,3,4,5,6,7,i
  19          0xFC, 0xFD, 0xFD, 0xFD, 0xFD, 0xFE, //高音 234567
  20          0xFE, 0xFE, 0xFE, 0xFE, 0xFE, 0xFE, 0xFF
  21          
  22          };  
  23          
  24          code uchar tl0light_8[] = {
  25            0x42, 0xC1, 0x17, 0xB6, 0xD0, 0xD1, 0xB6, //低音1234567
  26          0x21, 0xE1, 0x8C, 0xD8, 0x68, 0xE9, 0x5B, 0x8F, //1,2,3,4,5,6,7,i
  27          0xEE, 0x44, 0x6B, 0xB4, 0xF4, 0x2D, //高音 234567
  28          0x47, 0x77, 0xA2, 0xB6, 0xDA, 0xFA, 0x16
  29          
  30          };  
  31          
  32          
  33          code uchar song_1[] =
  34          {
  35          0,2,2,1,2,1,5,2,2,5,2,1,5,2,2,5,2,1,5,2,2,3,2,1,3,2,2,3,2,1,3,2,2,3,2,1,4,2,2,5,2,1,2,2,3,1,2,3,
  36          5,2,2,5,2,1,5,2,2,5,2,1,5,2,2,3,2,1,5,2,2,5,2,1,3,2,2,3,2,1,3,2,2,5,2,1,2,2,3,1,2,3,3,2,6,2,2,1,3,2,6,2,2,
             -1,
  37          3,2,3,5,2,3,5,2,6,5,2,1,2,2,6,1,2,1,2,2,6,1,2,1,5,2,2,1,2,3,1,2,2,7,1,3,
  38          1,2,3,1,2,3,2,1,1,3,2,3,3,2,1,5,2,3,5,2,1,1,2,3,2,2,3,1,2,3,7,2,1,1,2,3,1,2,3,2,2,1,3,2,3,1,3,1,
  39          7,2,3,7,2,1,1,2,3,1,2,1,2,2,3,2,2,1,1,2,3,7,2,1,1,2,3,1,2,2,1,2,3,1,2,1,3,2,3,3,2,1,3,2,3,3,2,1,2,2,3,2,2,
             -1,1,2,3,
  40          2,2,3,0,2,3,0,2,3,0,2,2,1,2,1,5,2,3,5,2,1,5,2,3,5,2,1,5,2,3,6,2,1,3,2,3,2,2,1,
  41          3,2,3,3,2,3,3,2,2,1,3,3,7,2,2,5,2,3,5,2,1,5,2,3,7,2,1,3,2,3,2,2,1,3,2,3,2,2,1,2,2,3,2,2,1,1,2,3,7,1,3,
  42          1,2,3,7,2,1,5,1,3,3,2,3,2,2,1,2,2,3,1,2,1,1,2,3,2,2,4,1,2,1,3,2,1,1,2,1,2,2,1,1,2,2,1,2,4,3,2,4,2,2,4,1,2,
             -4
  43          ,7,1,4,1,2,4,7,1,4,1,2,4,
  44          
  45          
  46          };
  47          
  48          code uchar song_2[] =
  49          {
  50          5, 2, 2, 6, 2, 2, 5, 2, 2, 4, 2, 2, 3, 2, 2, 2, 2, 2, 1, 2, 6, 5, 1, 6, 
  51          1, 2, 2, 3, 2, 2, 1, 3, 2, 7, 2, 2, 6, 2, 3, 3, 2, 1, 5, 2, 12,     
C51 COMPILER V9.60.0.0   MAIN                                                              11/30/2021 12:54:12 PAGE 2   

  52          6, 2, 2, 7, 2, 2, 6, 2, 2, 5, 2, 2, 4, 2, 2, 3, 2, 2, 2, 2, 6, 6, 1, 6,
  53          7, 1, 2, 6, 1, 2, 5, 1, 2, 5, 2, 2, 1, 2, 3, 2, 2, 1, 3, 2, 12,     
  54          5, 2, 2, 6, 2, 2, 5, 2, 2, 4, 2, 2, 3, 2, 2, 2, 2, 2, 1, 2, 6, 5, 1, 6, 
  55          1, 2, 2, 3, 2, 2, 1, 3, 2, 7, 2, 2, 2, 3, 3, 1, 3, 1, 6, 2, 12,     
  56          1, 3, 2, 7, 2, 2, 6, 2, 2, 5, 2, 6,                   
  57          6, 2, 2, 5, 2, 2, 4, 2, 2, 3, 2, 6,                   
  58          8, 2, 2, 2, 3, 2, 3, 3, 2, 2, 3, 2, 8, 2, 2, 6, 2, 2, 7, 2, 2, 6, 2, 3, 3, 2, 1, 5, 2, 12,
  59          8, 2, 2, 2, 3, 2, 3, 3, 2, 2, 3, 2, 8, 2, 2, 6, 2, 2, 7, 2, 2, 5, 2, 3, 3, 2, 1, 6, 2, 12,
  60          5, 2, 2, 4, 2, 2, 3, 2, 2, 2, 2, 6, 7, 1, 2, 6, 1, 2, 5, 1, 2, 3, 2, 6, 4, 2, 6, 2, 2, 4, 1, 2, 2, 1, 2, 1
             -0,
  61          };
  62          
  63          code uchar song_3[] =
  64          { 1,3,2,2,3,2,3,3,3,1,3,2,6,2,2,6,2,2,2,3,3,7,2,3,5,2,2,3,2,2,3,2,3,7,2,3,6,2,3,5,2,2,1,2,2,1,2,3,5,2,3,3,
             -2,6,2,2,2,3,2,2,
  65          4,2,4,1,3,3,7,2,1,7,2,1,1,3,2,5,2,4,4,2,3,3,2,2,4,2,1,4,2,4,1,3,3,7,2,1,7,2,1,6,2,1,5,2,5,1,3,2,2,3,2,3,3,
             -3,1,3,2,6,2,2,6,2,3,2,3,3,
  66          7,2,3,5,2,2,3,2,2,3,2,3,7,2,3,6,2,3,5,2,2,1,2,2,1,2,3,5,2,3,3,2,6,2,2,2,3,2,2,4,2,4,5,2,3,4,2,2,4,2,2,5,2,
             -2,3,2,3,5,2,3,1,3,3,3,3,3,
  67          2,3,4,2,3,2,2,3,2,1,3,3,1,3,2,1,3,6,0,2,3,0,2,3,0,2,3,0,2,3,0,2,3,0,2,3,1,3,2,2,3,2,3,3,3,1,3,2,6,2,2,6,2,
             -3,2,3,3,
  68          7,2,3,5,2,2,3,2,2,3,2,3,7,2,3,6,2,3,5,2,2,1,2,2,1,2,3,5,2,3,3,2,4,2,2,2,3,2,2,4,2,4,1,3,3,7,2,2,1,3,2,5,2,
             -4,4,2,3,3,2,3,4,2,1,
  69          4,2,4,1,3,3,7,2,2,7,2,2,6,2,2,5,2,5,1,3,2,2,3,2,3,3,3,1,3,2,6,2,2,6,2,3,2,3,3,7,2,3,5,2,2,3,2,2,3,2,3,7,2,
             -3,6,2,3,5,2,2,1,2,2,1,2,3,5,2,3,
  70          
  71          };
  72          
  73          void delay1(uint m)
  74          {
  75   1        while (m--);
  76   1      }//用于识别按键的延时函数与前面的延时函数不同
  77          
  78          uchar key_1()//返回0或1，用于后面的判断
  79          {
  80   1        key = 0;
  81   1        if (k1 == 0)     
  82   1        {
  83   2          delay1(1000);   
  84   2          if (k1 == 0)   
  85   2          {
  86   3            key = 1;
  87   3          }
  88   2          while (!k1);   
  89   2        }
  90   1        if (key == 1)
  91   1          return 1;
  92   1        else return 0;
  93   1      }
  94          
  95          uchar key_2()
  96          {
  97   1        key = 0;
  98   1        if (k2 == 0)     
  99   1        {
 100   2          delay1(1000);   
 101   2          if (k2 == 0)   
 102   2          {
 103   3            key = 1;
 104   3          }
 105   2          while (!k2);   
 106   2        }
C51 COMPILER V9.60.0.0   MAIN                                                              11/30/2021 12:54:12 PAGE 3   

 107   1        if (key == 1)
 108   1          return 1;
 109   1        else return 0;
 110   1      }
 111          
 112          uchar key_3()
 113          {
 114   1        key = 0;
 115   1        if (k3 == 0)      
 116   1        {
 117   2          delay1(1000);   
 118   2          if (k3 == 0)   
 119   2          {
 120   3            key = 1;
 121   3          }
 122   2          while (!k3);   
 123   2        }
 124   1        if (key == 1)
 125   1          return 1;
 126   1        else return 0;
 127   1      }
 128          
 129          void t0int() interrupt 1
 130          {
 131   1        TR0 = 0;
 132   1        Buzzer = !Buzzer;
 133   1        TH0 = th0_h;
 134   1        TL0 = tl0_l;
 135   1        TR0 = 1;
 136   1      }
 137          
 138          void delay(uchar t)
 139          {
 140   1        uchar t1;
 141   1        ulong t2;
 142   1        for (t1 = 0;t1 < t;t1++)
 143   1          for (t2 = 0;t2 < 2765;t2++);
 144   1        TR0 = 0;
 145   1      }
 146          
 147          void sing()
 148          {
 149   1        TH0 = th0high_8;
 150   1        TL0 = tl0light_8;
 151   1        TR0 = 1;
 152   1        delay(time);
 153   1      }
 154          
 155          
 156          void play_1()
 157          {
 158   1        i = 0;
 159   1        time = 1;
 160   1        while (time)
 161   1        {
 162   2        a:
 163   2          j = song_1[i] + 7 * song_1[i + 1] - 1;
 164   2          th0_h = th0high_8[j];
 165   2          tl0_l = tl0light_8[j];
 166   2          time = song_1[i + 2];
 167   2      
 168   2          if (song_1[i] != 0)//休止符
C51 COMPILER V9.60.0.0   MAIN                                                              11/30/2021 12:54:12 PAGE 4   

 169   2          {
 170   3            sing();
 171   3            i += 3;
 172   3          }
 173   2          else
 174   2          {
 175   3            Buzzer = 1;
 176   3            delay(time);
 177   3            i += 3;
 178   3            goto a;
 179   3      
 180   3          }
 181   2          if (key_3() == 1 || key_2() == 1)
 182   2          {
 183   3            Buzzer = 1;
 184   3            break;
 185   3          }
 186   2      
 187   2        }
 188   1      }
 189          
 190          void play_2()
 191          {
 192   1      
 193   1        i = 0;
 194   1        time = 1;
 195   1        while (time)
 196   1        {
 197   2        a:
 198   2          j = song_2[i] + 7 * song_2[i + 1] - 1;
 199   2          th0_h = th0high_8[j];
 200   2          tl0_l = tl0light_8[j];
 201   2          time = song_2[i + 2];
 202   2      
 203   2          if (song_2[i] != 0)//休止符
 204   2          {
 205   3            sing();
 206   3            i += 3;
 207   3          }
 208   2          else
 209   2          {
 210   3            Buzzer = 1;
 211   3            delay(time);
 212   3            i += 3;
 213   3            goto a;
 214   3      
 215   3      
 216   3          }
 217   2          if (key_1() == 1 || key_3() == 1)
 218   2          {
 219   3            Buzzer = 1;
 220   3            break;
 221   3          }
 222   2      
 223   2        }
 224   1      }
 225          
 226          void play_3()
 227          {
 228   1        i = 0;
 229   1        time = 1;
 230   1        while (time)
C51 COMPILER V9.60.0.0   MAIN                                                              11/30/2021 12:54:12 PAGE 5   

 231   1        {
 232   2        a:
 233   2          j = song_3[i] + 7 * song_3[i + 1] - 1;
 234   2          th0_h = th0high_8[j];
 235   2          tl0_l = tl0light_8[j];
 236   2          time = song_3[i + 2];
 237   2      
 238   2          if (song_3[i] != 0)//休止符
 239   2          {
 240   3            sing();
 241   3            i += 3;
 242   3          }
 243   2          else
 244   2          {
 245   3            Buzzer  = 1;
 246   3            delay(time);
 247   3            i += 3;
 248   3            goto a;
 249   3      
 250   3      
 251   3          }
 252   2          if (key_1() == 1 || key_2() == 1)
 253   2          {
 254   3            Buzzer  = 1;
 255   3            break;
 256   3          }
 257   2      
 258   2        }
 259   1      }
 260          
 261          void main(void)
 262          {
 263   1        TMOD = 1;
 264   1        ET0 = 1;
 265   1        EA = 1;
 266   1        while (1)
 267   1        {
 268   2          Buzzer= 1;
 269   2          if (key_1())
 270   2          {
 271   3            play_1();
 272   3          }
 273   2      
 274   2          if (key_2())
 275   2          {
 276   3            play_2();
 277   3          }
 278   2          if (key_3())
 279   2          {
 280   3            play_3();
 281   3          }
 282   2        }
 283   1      }
 284          
 285          
 286          


MODULE INFORMATION:   STATIC OVERLAYABLE
   CODE SIZE        =    799    ----
   CONSTANT SIZE    =   1091    ----
   XDATA SIZE       =   ----    ----
C51 COMPILER V9.60.0.0   MAIN                                                              11/30/2021 12:54:12 PAGE 6   

   PDATA SIZE       =   ----    ----
   DATA SIZE        =     13       6
   IDATA SIZE       =   ----    ----
   BIT SIZE         =   ----    ----
END OF MODULE INFORMATION.


C51 COMPILATION COMPLETE.  0 WARNING(S),  0 ERROR(S)
