BL51 BANKED LINKER/LOCATER V6.22.2.0                                                    11/30/2021  13:46:24  PAGE 1


BL51 BANKED LINKER/LOCATER V6.22.2.0, INVOKED BY:
D:\KILE5\C51\BIN\BL51.EXE .\Objects\main.obj TO .\Objects\project PRINT (.\Listings\project.m51) RAMSIZE (256)


MEMORY MODEL: SMALL


INPUT MODULES INCLUDED:
  .\Objects\main.obj (MAIN)
  D:\KILE5\C51\LIB\C51S.LIB (?C_STARTUP)
  D:\KILE5\C51\LIB\C51S.LIB (?C?ULCMP)


LINK MAP OF MODULE:  .\Objects\project (MAIN)


            TYPE    BASE      LENGTH    RELOCATION   SEGMENT NAME
            -----------------------------------------------------

            * * * * * * *   D A T A   M E M O R Y   * * * * * * *
            REG     0000H     0008H     ABSOLUTE     "REG BANK 0"
            DATA    0008H     000DH     UNIT         ?DT?MAIN
            DATA    0015H     0006H     UNIT         _DATA_GROUP_
            IDATA   001BH     0001H     UNIT         ?STACK

            * * * * * * *   C O D E   M E M O R Y   * * * * * * *
            CODE    0000H     0003H     ABSOLUTE     
                    0003H     0008H                  *** GAP ***
            CODE    000BH     0003H     ABSOLUTE     
                    000EH     07F2H                  *** GAP ***
            CODE    0800H     0443H     UNIT         ?CO?MAIN
            CODE    0C43H     00BAH     UNIT         ?PR?PLAY_1?MAIN
            CODE    0CFDH     00BAH     UNIT         ?PR?PLAY_3?MAIN
            CODE    0DB7H     00A1H     UNIT         ?PR?PLAY_2?MAIN
            CODE    0E58H     004CH     UNIT         ?PR?_DELAY?MAIN
            CODE    0EA4H     0026H     UNIT         ?PR?MAIN?MAIN
            CODE    0ECAH     0025H     UNIT         ?PR?KEY_1?MAIN
            CODE    0EEFH     0025H     UNIT         ?PR?KEY_2?MAIN
            CODE    0F14H     0025H     UNIT         ?PR?KEY_3?MAIN
            CODE    0F39H     0011H     UNIT         ?C?LIB_CODE
            CODE    0F4AH     000FH     UNIT         ?PR?_DELAY1?MAIN
            CODE    0F59H     000DH     UNIT         ?PR?T0INT?MAIN
            CODE    0F66H     000DH     UNIT         ?PR?SING?MAIN
            CODE    0F73H     000CH     UNIT         ?C_C51STARTUP



OVERLAY MAP OF MODULE:   .\Objects\project (MAIN)


SEGMENT                          DATA_GROUP 
  +--> CALLED SEGMENT          START    LENGTH
----------------------------------------------
?C_C51STARTUP                  -----    -----
  +--> ?PR?MAIN?MAIN

?PR?MAIN?MAIN                  -----    -----
  +--> ?PR?KEY_1?MAIN
BL51 BANKED LINKER/LOCATER V6.22.2.0                                                  11/30/2021  13:46:24  PAGE 2


  +--> ?PR?PLAY_1?MAIN
  +--> ?PR?KEY_2?MAIN
  +--> ?PR?PLAY_2?MAIN
  +--> ?PR?KEY_3?MAIN
  +--> ?PR?PLAY_3?MAIN

?PR?KEY_1?MAIN                 -----    -----
  +--> ?PR?_DELAY1?MAIN

?PR?PLAY_1?MAIN                -----    -----
  +--> ?CO?MAIN
  +--> ?PR?SING?MAIN
  +--> ?PR?_DELAY?MAIN
  +--> ?PR?KEY_3?MAIN
  +--> ?PR?KEY_2?MAIN

?PR?SING?MAIN                  -----    -----
  +--> ?CO?MAIN
  +--> ?PR?_DELAY?MAIN

?PR?_DELAY?MAIN                0015H    0006H

?PR?KEY_3?MAIN                 -----    -----
  +--> ?PR?_DELAY1?MAIN

?PR?KEY_2?MAIN                 -----    -----
  +--> ?PR?_DELAY1?MAIN

?PR?PLAY_2?MAIN                -----    -----
  +--> ?CO?MAIN
  +--> ?PR?SING?MAIN
  +--> ?PR?_DELAY?MAIN
  +--> ?PR?KEY_1?MAIN
  +--> ?PR?KEY_3?MAIN

?PR?PLAY_3?MAIN                -----    -----
  +--> ?CO?MAIN
  +--> ?PR?SING?MAIN
  +--> ?PR?_DELAY?MAIN
  +--> ?PR?KEY_1?MAIN
  +--> ?PR?KEY_2?MAIN



SYMBOL TABLE OF MODULE:  .\Objects\project (MAIN)

  VALUE           TYPE          NAME
  ----------------------------------

  -------         MODULE        MAIN
  C:0000H         SYMBOL        _ICE_DUMMY_
  D:0090H         PUBLIC        P1
  D:00B0H         PUBLIC        P3
  B:0090H.5       PUBLIC        Buzzer
  B:00A8H.7       PUBLIC        EA
  C:0E5CH         PUBLIC        _delay
  B:00B0H.1       PUBLIC        k1
BL51 BANKED LINKER/LOCATER V6.22.2.0                                                  11/30/2021  13:46:24  PAGE 3


  B:00B0H.0       PUBLIC        k2
  B:00B0H.2       PUBLIC        k3
  C:0EA4H         PUBLIC        main
  D:0008H         PUBLIC        time
  C:0F66H         PUBLIC        sing
  D:0089H         PUBLIC        TMOD
  C:0F4EH         PUBLIC        _delay1
  C:081CH         PUBLIC        tl0light_8
  C:0800H         PUBLIC        th0high_8
  C:0C43H         PUBLIC        play_1
  B:00A8H.1       PUBLIC        ET0
  C:0DB7H         PUBLIC        play_2
  C:0838H         PUBLIC        song_1
  D:0009H         PUBLIC        key
  C:0CFDH         PUBLIC        play_3
  C:09C7H         PUBLIC        song_2
  C:0AC6H         PUBLIC        song_3
  D:008CH         PUBLIC        TH0
  D:008AH         PUBLIC        TL0
  D:000BH         PUBLIC        th0_h
  B:0088H.4       PUBLIC        TR0
  C:0ECAH         PUBLIC        key_1
  C:0EEFH         PUBLIC        key_2
  C:0F14H         PUBLIC        key_3
  D:000CH         PUBLIC        tl0_l
  D:000DH         PUBLIC        i
  D:0011H         PUBLIC        j
  C:0F59H         PUBLIC        t0int
  C:0F4AH         SYMBOL        L?0066
  -------         PROC          L?0065
  -------         ENDPROC       L?0065
  C:0F4AH         SYMBOL        L?0066
  -------         PROC          _DELAY1
  D:0006H         SYMBOL        m
  C:0F4EH         LINE#         73
  C:0F4EH         LINE#         74
  C:0F4EH         LINE#         75
  C:0F58H         LINE#         76
  -------         ENDPROC       _DELAY1
  -------         PROC          KEY_1
  C:0ECAH         LINE#         78
  C:0ECAH         LINE#         79
  C:0ECAH         LINE#         80
  C:0ECFH         LINE#         81
  C:0ED2H         LINE#         82
  C:0ED2H         LINE#         83
  C:0ED5H         LINE#         84
  C:0ED8H         LINE#         85
  C:0ED8H         LINE#         86
  C:0EDEH         LINE#         87
  C:0EDEH         LINE#         88
  C:0EE1H         LINE#         89
  C:0EE1H         LINE#         90
  C:0EE9H         LINE#         91
  C:0EECH         LINE#         92
  C:0EEEH         LINE#         93
  -------         ENDPROC       KEY_1
BL51 BANKED LINKER/LOCATER V6.22.2.0                                                  11/30/2021  13:46:24  PAGE 4


  -------         PROC          KEY_2
  C:0EEFH         LINE#         95
  C:0EEFH         LINE#         96
  C:0EEFH         LINE#         97
  C:0EF4H         LINE#         98
  C:0EF7H         LINE#         99
  C:0EF7H         LINE#         100
  C:0EFAH         LINE#         101
  C:0EFDH         LINE#         102
  C:0EFDH         LINE#         103
  C:0F03H         LINE#         104
  C:0F03H         LINE#         105
  C:0F06H         LINE#         106
  C:0F06H         LINE#         107
  C:0F0EH         LINE#         108
  C:0F11H         LINE#         109
  C:0F13H         LINE#         110
  -------         ENDPROC       KEY_2
  -------         PROC          KEY_3
  C:0F14H         LINE#         112
  C:0F14H         LINE#         113
  C:0F14H         LINE#         114
  C:0F19H         LINE#         115
  C:0F1CH         LINE#         116
  C:0F1CH         LINE#         117
  C:0F1FH         LINE#         118
  C:0F22H         LINE#         119
  C:0F22H         LINE#         120
  C:0F28H         LINE#         121
  C:0F28H         LINE#         122
  C:0F2BH         LINE#         123
  C:0F2BH         LINE#         124
  C:0F33H         LINE#         125
  C:0F36H         LINE#         126
  C:0F38H         LINE#         127
  -------         ENDPROC       KEY_3
  -------         PROC          T0INT
  C:0F59H         LINE#         129
  C:0F59H         LINE#         131
  C:0F5BH         LINE#         132
  C:0F5DH         LINE#         133
  C:0F60H         LINE#         134
  C:0F63H         LINE#         135
  C:0F65H         LINE#         136
  -------         ENDPROC       T0INT
  C:0E58H         SYMBOL        L?0068
  -------         PROC          L?0067
  -------         ENDPROC       L?0067
  C:0E58H         SYMBOL        L?0068
  -------         PROC          _DELAY
  D:0015H         SYMBOL        t
  -------         DO            
  D:0016H         SYMBOL        t1
  D:0017H         SYMBOL        t2
  -------         ENDDO         
  C:0E5CH         LINE#         138
  C:0E5EH         LINE#         139
BL51 BANKED LINKER/LOCATER V6.22.2.0                                                  11/30/2021  13:46:24  PAGE 5


  C:0E5EH         LINE#         142
  C:0E68H         LINE#         143
  C:0EA1H         LINE#         144
  C:0EA3H         LINE#         145
  -------         ENDPROC       _DELAY
  -------         PROC          SING
  C:0F66H         LINE#         147
  C:0F66H         LINE#         148
  C:0F66H         LINE#         149
  C:0F69H         LINE#         150
  C:0F6CH         LINE#         151
  C:0F6EH         LINE#         152
  -------         ENDPROC       SING
  -------         PROC          PLAY_1
  -------         DO            
  C:0C56H         SYMBOL        a
  -------         ENDDO         
  C:0C43H         LINE#         156
  C:0C43H         LINE#         157
  C:0C43H         LINE#         158
  C:0C4CH         LINE#         159
  C:0C4FH         LINE#         160
  C:0C56H         LINE#         161
  C:0C56H         LINE#         162
  C:0C56H         LINE#         163
  C:0C91H         LINE#         164
  C:0C98H         LINE#         165
  C:0C9FH         LINE#         166
  C:0CAFH         LINE#         168
  C:0CB2H         LINE#         169
  C:0CB2H         LINE#         170
  C:0CB5H         LINE#         171
  C:0CCAH         LINE#         172
  C:0CCCH         LINE#         174
  C:0CCCH         LINE#         175
  C:0CCCH         LINE#         176
  C:0CCFH         LINE#         177
  C:0CE4H         LINE#         178
  C:0CE7H         LINE#         180
  C:0CE7H         LINE#         181
  C:0CFAH         LINE#         182
  C:0CFAH         LINE#         183
  C:0CFCH         LINE#         184
  C:0CFCH         LINE#         185
  C:0CFCH         LINE#         187
  C:0CFCH         LINE#         188
  -------         ENDPROC       PLAY_1
  -------         PROC          PLAY_2
  -------         DO            
  C:0DCAH         SYMBOL        a
  -------         ENDDO         
  C:0DB7H         LINE#         190
  C:0DB7H         LINE#         191
  C:0DB7H         LINE#         193
  C:0DC0H         LINE#         194
  C:0DC3H         LINE#         195
  C:0DCAH         LINE#         196
BL51 BANKED LINKER/LOCATER V6.22.2.0                                                  11/30/2021  13:46:24  PAGE 6


  C:0DCAH         LINE#         197
  C:0DCAH         LINE#         198
  C:0DF5H         LINE#         199
  C:0DFCH         LINE#         200
  C:0E03H         LINE#         201
  C:0E0BH         LINE#         203
  C:0E0EH         LINE#         204
  C:0E0EH         LINE#         205
  C:0E11H         LINE#         206
  C:0E26H         LINE#         207
  C:0E28H         LINE#         209
  C:0E28H         LINE#         210
  C:0E28H         LINE#         211
  C:0E2BH         LINE#         212
  C:0E40H         LINE#         213
  C:0E42H         LINE#         216
  C:0E42H         LINE#         217
  C:0E55H         LINE#         218
  C:0E55H         LINE#         219
  C:0E57H         LINE#         220
  C:0E57H         LINE#         221
  C:0E57H         LINE#         223
  C:0E57H         LINE#         224
  -------         ENDPROC       PLAY_2
  -------         PROC          PLAY_3
  -------         DO            
  C:0D10H         SYMBOL        a
  -------         ENDDO         
  C:0CFDH         LINE#         226
  C:0CFDH         LINE#         227
  C:0CFDH         LINE#         228
  C:0D06H         LINE#         229
  C:0D09H         LINE#         230
  C:0D10H         LINE#         231
  C:0D10H         LINE#         232
  C:0D10H         LINE#         233
  C:0D4BH         LINE#         234
  C:0D52H         LINE#         235
  C:0D59H         LINE#         236
  C:0D69H         LINE#         238
  C:0D6CH         LINE#         239
  C:0D6CH         LINE#         240
  C:0D6FH         LINE#         241
  C:0D84H         LINE#         242
  C:0D86H         LINE#         244
  C:0D86H         LINE#         245
  C:0D86H         LINE#         246
  C:0D89H         LINE#         247
  C:0D9EH         LINE#         248
  C:0DA1H         LINE#         251
  C:0DA1H         LINE#         252
  C:0DB4H         LINE#         253
  C:0DB4H         LINE#         254
  C:0DB6H         LINE#         255
  C:0DB6H         LINE#         256
  C:0DB6H         LINE#         258
  C:0DB6H         LINE#         259
BL51 BANKED LINKER/LOCATER V6.22.2.0                                                  11/30/2021  13:46:24  PAGE 7


  -------         ENDPROC       PLAY_3
  -------         PROC          MAIN
  C:0EA4H         LINE#         261
  C:0EA4H         LINE#         262
  C:0EA4H         LINE#         263
  C:0EA7H         LINE#         264
  C:0EA9H         LINE#         265
  C:0EABH         LINE#         266
  C:0EABH         LINE#         267
  C:0EABH         LINE#         268
  C:0EADH         LINE#         269
  C:0EB3H         LINE#         270
  C:0EB3H         LINE#         271
  C:0EB6H         LINE#         272
  C:0EB6H         LINE#         274
  C:0EBCH         LINE#         275
  C:0EBCH         LINE#         276
  C:0EBFH         LINE#         277
  C:0EBFH         LINE#         278
  C:0EC5H         LINE#         279
  C:0EC5H         LINE#         280
  C:0EC8H         LINE#         281
  C:0EC8H         LINE#         282
  -------         ENDPROC       MAIN
  -------         ENDMOD        MAIN

  -------         MODULE        ?C?ULCMP
  C:0F39H         PUBLIC        ?C?ULCMP
  -------         ENDMOD        ?C?ULCMP

******************************************************************************
* RESTRICTED VERSION WITH 0800H BYTE CODE SIZE LIMIT; USED: 0765H BYTE (92%) *
******************************************************************************

Program Size: data=28.0 xdata=0 code=1925
LINK/LOCATE RUN COMPLETE.  0 WARNING(S),  0 ERROR(S)
