BL51 BANKED LINKER/LOCATER V6.22.2.0                                                    11/26/2021  14:09:28  PAGE 1


BL51 BANKED LINKER/LOCATER V6.22.2.0, INVOKED BY:
D:\KILE5\C51\BIN\BL51.EXE .\Objects\main.obj, .\Objects\Delay.obj, .\Objects\Key.obj, .\Objects\Nixie.obj, .\Objects\Tim
>> er0.obj, .\Objects\Buzzer.obj TO .\Objects\project PRINT (.\Listings\project.m51) RAMSIZE (256)


MEMORY MODEL: SMALL


INPUT MODULES INCLUDED:
  .\Objects\main.obj (MAIN)
  .\Objects\Delay.obj (DELAY)
  .\Objects\Key.obj (KEY)
  .\Objects\Nixie.obj (NIXIE)
  .\Objects\Timer0.obj (TIMER0)
  .\Objects\Buzzer.obj (BUZZER)
  D:\KILE5\C51\LIB\C51S.LIB (?C_STARTUP)
  D:\KILE5\C51\LIB\C51S.LIB (?C_INIT)


LINK MAP OF MODULE:  .\Objects\project (MAIN)


            TYPE    BASE      LENGTH    RELOCATION   SEGMENT NAME
            -----------------------------------------------------

            * * * * * * *   D A T A   M E M O R Y   * * * * * * *
            REG     0000H     0008H     ABSOLUTE     "REG BANK 0"
            DATA    0008H     004CH     UNIT         ?DT?MAIN
            DATA    0054H     000AH     UNIT         ?DT?NIXIE
            DATA    005EH     0001H     UNIT         ?DT?KEY?KEY
            IDATA   005FH     0001H     UNIT         ?STACK

            * * * * * * *   C O D E   M E M O R Y   * * * * * * *
            CODE    0000H     0003H     ABSOLUTE     
                    0003H     0008H                  *** GAP ***
            CODE    000BH     0003H     ABSOLUTE     
                    000EH     07F2H                  *** GAP ***
            CODE    0800H     00C0H     UNIT         ?PR?MAIN?MAIN
            CODE    08C0H     008CH     UNIT         ?C_C51STARTUP
            CODE    094CH     0076H     UNIT         ?CO?MAIN
            CODE    09C2H     006DH     UNIT         ?PR?_NIXIE?NIXIE
            CODE    0A2FH     0061H     UNIT         ?PR?KEY?KEY
            CODE    0A90H     005AH     UNIT         ?C_INITSEG
            CODE    0AEAH     0032H     UNIT         ?PR?TIMER0_ROUTINE?MAIN
            CODE    0B1CH     0022H     UNIT         ?PR?_BUZZER_TIME?BUZZER
            CODE    0B3EH     0017H     UNIT         ?PR?TIMER0INIT?TIMER0
            CODE    0B55H     0015H     UNIT         ?PR?_DELAY?DELAY
            CODE    0B6AH     0006H     UNIT         ?PR?BUZZER_DELAY500US?BUZZER



OVERLAY MAP OF MODULE:   .\Objects\project (MAIN)


SEGMENT
  +--> CALLED SEGMENT
---------------------
?C_C51STARTUP
BL51 BANKED LINKER/LOCATER V6.22.2.0                                                  11/26/2021  14:09:28  PAGE 2


  +--> ?PR?MAIN?MAIN
  +--> ?C_INITSEG

?PR?MAIN?MAIN
  +--> ?PR?TIMER0INIT?TIMER0
  +--> ?PR?_DELAY?DELAY
  +--> ?PR?_NIXIE?NIXIE
  +--> ?CO?MAIN

?PR?_NIXIE?NIXIE
  +--> ?PR?_DELAY?DELAY



SYMBOL TABLE OF MODULE:  .\Objects\project (MAIN)

  VALUE           TYPE          NAME
  ----------------------------------

  -------         MODULE        MAIN
  C:0000H         SYMBOL        _ICE_DUMMY_
  C:0AEAH         PUBLIC        Timer0_Routine
  D:0090H         PUBLIC        P1
  B:0090H.5       PUBLIC        Buzzer
  D:0008H         PUBLIC        Musicselect
  B:00A0H.0       PUBLIC        P2_0
  B:00A0H.1       PUBLIC        P2_1
  C:0800H         PUBLIC        main
  C:094CH         PUBLIC        Music_one
  D:0009H         PUBLIC        Freqselct
  C:099BH         PUBLIC        Music_two
  D:008CH         PUBLIC        TH0
  D:008AH         PUBLIC        TL0
  B:0088H.4       PUBLIC        TR0
  D:000AH         PUBLIC        FreqTable
  -------         PROC          MAIN
  C:0800H         LINE#         148
  C:0800H         LINE#         149
  C:0800H         LINE#         150
  C:0803H         LINE#         152
  C:0803H         LINE#         153
  C:0803H         LINE#         154
  C:0806H         LINE#         155
  C:0806H         LINE#         156
  C:080DH         LINE#         157
  C:0810H         LINE#         158
  C:0810H         LINE#         159
  C:0819H         LINE#         160
  C:0828H         LINE#         161
  C:0828H         LINE#         162
  C:0830H         LINE#         163
  C:0832H         LINE#         164
  C:083FH         LINE#         165
  C:0841H         LINE#         166
  C:0843H         LINE#         167
  C:084AH         LINE#         168
  C:084CH         LINE#         169
BL51 BANKED LINKER/LOCATER V6.22.2.0                                                  11/26/2021  14:09:28  PAGE 3


  C:084CH         LINE#         171
  C:084EH         LINE#         173
  C:084EH         LINE#         174
  C:0850H         LINE#         175
  C:0852H         LINE#         176
  C:0852H         LINE#         177
  C:0852H         LINE#         178
  C:0852H         LINE#         179
  C:0855H         LINE#         180
  C:085CH         LINE#         181
  C:085FH         LINE#         182
  C:085FH         LINE#         183
  C:085FH         LINE#         184
  C:085FH         LINE#         186
  C:0862H         LINE#         187
  C:0862H         LINE#         188
  C:0869H         LINE#         189
  C:0872H         LINE#         190
  C:0875H         LINE#         191
  C:0875H         LINE#         192
  C:0884H         LINE#         193
  C:0884H         LINE#         194
  C:088CH         LINE#         195
  C:088EH         LINE#         196
  C:089BH         LINE#         197
  C:089DH         LINE#         198
  C:089FH         LINE#         199
  C:08A6H         LINE#         200
  C:08A8H         LINE#         201
  C:08A8H         LINE#         202
  C:08AAH         LINE#         204
  C:08AAH         LINE#         205
  C:08ACH         LINE#         206
  C:08AEH         LINE#         207
  C:08AEH         LINE#         208
  C:08AEH         LINE#         209
  C:08AEH         LINE#         210
  C:08B1H         LINE#         211
  C:08B8H         LINE#         212
  -------         ENDPROC       MAIN
  -------         PROC          TIMER0_ROUTINE
  C:0AEAH         LINE#         220
  C:0AF5H         LINE#         222
  C:0B03H         LINE#         223
  C:0B03H         LINE#         224
  C:0B10H         LINE#         225
  C:0B13H         LINE#         226
  C:0B13H         LINE#         228
  C:0B13H         LINE#         229
  -------         ENDPROC       TIMER0_ROUTINE
  -------         ENDMOD        MAIN

  -------         MODULE        DELAY
  C:0000H         SYMBOL        _ICE_DUMMY_
  C:0B55H         PUBLIC        _Delay
  -------         PROC          _DELAY
  D:0006H         SYMBOL        xms
BL51 BANKED LINKER/LOCATER V6.22.2.0                                                  11/26/2021  14:09:28  PAGE 4


  -------         DO            
  D:0005H         SYMBOL        i
  D:0004H         SYMBOL        j
  -------         ENDDO         
  C:0B55H         LINE#         3
  C:0B55H         LINE#         4
  C:0B55H         LINE#         6
  C:0B5FH         LINE#         7
  C:0B5FH         LINE#         8
  C:0B61H         LINE#         9
  C:0B63H         LINE#         11
  C:0B63H         LINE#         12
  C:0B65H         LINE#         13
  C:0B67H         LINE#         14
  C:0B69H         LINE#         16
  -------         ENDPROC       _DELAY
  -------         ENDMOD        DELAY

  -------         MODULE        KEY
  C:0000H         SYMBOL        _ICE_DUMMY_
  B:00B0H.0       PUBLIC        P3_0
  B:00B0H.1       PUBLIC        P3_1
  B:00B0H.2       PUBLIC        P3_2
  B:00B0H.3       PUBLIC        P3_3
  C:0A2FH         PUBLIC        Key
  -------         PROC          KEY
  -------         DO            
  D:005EH         SYMBOL        KeyNumber
  -------         ENDDO         
  C:0A2FH         LINE#         4
  C:0A2FH         LINE#         5
  C:0A2FH         LINE#         6
  C:0A32H         LINE#         7
  C:0A48H         LINE#         8
  C:0A5FH         LINE#         9
  C:0A76H         LINE#         10
  C:0A8DH         LINE#         12
  C:0A8FH         LINE#         13
  -------         ENDPROC       KEY
  -------         ENDMOD        KEY

  -------         MODULE        NIXIE
  C:0000H         SYMBOL        _ICE_DUMMY_
  C:09C2H         PUBLIC        _Nixie
  D:0080H         PUBLIC        P0
  B:00A0H.2       PUBLIC        P2_2
  B:00A0H.3       PUBLIC        P2_3
  B:00A0H.4       PUBLIC        P2_4
  D:0054H         PUBLIC        NixieTable
  -------         PROC          _NIXIE
  D:0007H         SYMBOL        Location
  D:0004H         SYMBOL        Number
  C:09C2H         LINE#         6
  C:09C2H         LINE#         7
  C:09C2H         LINE#         8
  C:09EFH         LINE#         9
  C:09EFH         LINE#         10
BL51 BANKED LINKER/LOCATER V6.22.2.0                                                  11/26/2021  14:09:28  PAGE 5


  C:09F3H         LINE#         11
  C:09F7H         LINE#         12
  C:09FBH         LINE#         13
  C:09FFH         LINE#         14
  C:0A07H         LINE#         15
  C:0A0FH         LINE#         16
  C:0A17H         LINE#         17
  C:0A1DH         LINE#         18
  C:0A1DH         LINE#         19
  C:0A24H         LINE#         20
  C:0A2BH         LINE#         21
  C:0A2EH         LINE#         22
  -------         ENDPROC       _NIXIE
  -------         ENDMOD        NIXIE

  -------         MODULE        TIMER0
  C:0000H         SYMBOL        _ICE_DUMMY_
  B:00A8H.7       PUBLIC        EA
  D:0089H         PUBLIC        TMOD
  B:00A8H.1       PUBLIC        ET0
  B:0088H.5       PUBLIC        TF0
  C:0B3EH         PUBLIC        Timer0Init
  D:008CH         PUBLIC        TH0
  D:008AH         PUBLIC        TL0
  B:00B8H.1       PUBLIC        PT0
  B:0088H.4       PUBLIC        TR0
  -------         PROC          TIMER0INIT
  C:0B3EH         LINE#         9
  C:0B3EH         LINE#         10
  C:0B3EH         LINE#         12
  C:0B41H         LINE#         13
  C:0B44H         LINE#         14
  C:0B47H         LINE#         15
  C:0B4AH         LINE#         16
  C:0B4CH         LINE#         17
  C:0B4EH         LINE#         18
  C:0B50H         LINE#         19
  C:0B52H         LINE#         20
  C:0B54H         LINE#         22
  -------         ENDPROC       TIMER0INIT
  -------         ENDMOD        TIMER0

  -------         MODULE        BUZZER
  C:0000H         SYMBOL        _ICE_DUMMY_
  D:0090H         PUBLIC        P1
  B:0090H.5       PUBLIC        Buzzer
  C:0B6AH         PUBLIC        Buzzer_Delay500us
  C:0B1CH         PUBLIC        _Buzzer_Time
  -------         PROC          BUZZER_DELAY500US
  -------         DO            
  D:0007H         SYMBOL        i
  -------         ENDDO         
  C:0B6AH         LINE#         12
  C:0B6AH         LINE#         13
  C:0B6AH         LINE#         16
  C:0B6BH         LINE#         17
  C:0B6DH         LINE#         18
BL51 BANKED LINKER/LOCATER V6.22.2.0                                                  11/26/2021  14:09:28  PAGE 6


  C:0B6FH         LINE#         19
  -------         ENDPROC       BUZZER_DELAY500US
  -------         PROC          _BUZZER_TIME
  D:0004H         SYMBOL        ms
  -------         DO            
  D:0002H         SYMBOL        i
  -------         ENDDO         
  C:0B1CH         LINE#         26
  C:0B20H         LINE#         27
  C:0B20H         LINE#         29
  C:0B31H         LINE#         30
  C:0B31H         LINE#         31
  C:0B33H         LINE#         32
  C:0B36H         LINE#         33
  C:0B3DH         LINE#         34
  -------         ENDPROC       _BUZZER_TIME
  -------         ENDMOD        BUZZER

*** WARNING L16: UNCALLED SEGMENT, IGNORED FOR OVERLAY PROCESS
    SEGMENT: ?PR?KEY?KEY

*** WARNING L16: UNCALLED SEGMENT, IGNORED FOR OVERLAY PROCESS
    SEGMENT: ?PR?_BUZZER_TIME?BUZZER

******************************************************************************
* RESTRICTED VERSION WITH 0800H BYTE CODE SIZE LIMIT; USED: 02E6H BYTE (36%) *
******************************************************************************

Program Size: data=96.0 xdata=0 code=886
LINK/LOCATE RUN COMPLETE.  2 WARNING(S),  0 ERROR(S)
