BL51 BANKED LINKER/LOCATER V6.22.2.0                                                    11/26/2021  15:20:57  PAGE 1


BL51 BANKED LINKER/LOCATER V6.22.2.0, INVOKED BY:
D:\KILE5\C51\BIN\BL51.EXE .\Objects\main.obj, .\Objects\Delay.obj, .\Objects\Nixie.obj TO .\Objects\project PRINT (.\Lis
>> tings\project.m51) RAMSIZE (256)


MEMORY MODEL: SMALL


INPUT MODULES INCLUDED:
  .\Objects\main.obj (MAIN)
  .\Objects\Delay.obj (DELAY)
  .\Objects\Nixie.obj (NIXIE)
  D:\KILE5\C51\LIB\C51S.LIB (?C_STARTUP)
  D:\KILE5\C51\LIB\C51S.LIB (?C?UIDIV)
  D:\KILE5\C51\LIB\C51S.LIB (?C_INIT)


LINK MAP OF MODULE:  .\Objects\project (MAIN)


            TYPE    BASE      LENGTH    RELOCATION   SEGMENT NAME
            -----------------------------------------------------

            * * * * * * *   D A T A   M E M O R Y   * * * * * * *
            REG     0000H     0008H     ABSOLUTE     "REG BANK 0"
            DATA    0008H     0037H     UNIT         ?DT?MAIN
            DATA    003FH     000AH     UNIT         ?DT?NIXIE
            IDATA   0049H     0001H     UNIT         ?STACK

            * * * * * * *   C O D E   M E M O R Y   * * * * * * *
            CODE    0000H     0003H     ABSOLUTE     
                    0003H     0008H                  *** GAP ***
            CODE    000BH     0003H     ABSOLUTE     
                    000EH     07F2H                  *** GAP ***
            CODE    0800H     022DH     UNIT         ?PR?MAIN?MAIN
            CODE    0A2DH     00A5H     UNIT         ?CO?MAIN
            CODE    0AD2H     008CH     UNIT         ?C_C51STARTUP
            CODE    0B5EH     006DH     UNIT         ?PR?_NIXIE?NIXIE
            CODE    0BCBH     0055H     UNIT         ?C?LIB_CODE
            CODE    0C20H     0043H     UNIT         ?C_INITSEG
            CODE    0C63H     0015H     UNIT         ?PR?_DELAY?DELAY
            CODE    0C78H     0010H     UNIT         ?PR?TIME0_INIT?MAIN
            CODE    0C88H     000BH     UNIT         ?PR?TIME0?MAIN



OVERLAY MAP OF MODULE:   .\Objects\project (MAIN)


SEGMENT
  +--> CALLED SEGMENT
---------------------
?C_C51STARTUP
  +--> ?PR?MAIN?MAIN
  +--> ?C_INITSEG

?PR?MAIN?MAIN
  +--> ?PR?TIME0_INIT?MAIN
BL51 BANKED LINKER/LOCATER V6.22.2.0                                                  11/26/2021  15:20:57  PAGE 2


  +--> ?PR?_DELAY?DELAY
  +--> ?CO?MAIN



SYMBOL TABLE OF MODULE:  .\Objects\project (MAIN)

  VALUE           TYPE          NAME
  ----------------------------------

  -------         MODULE        MAIN
  C:0000H         SYMBOL        _ICE_DUMMY_
  C:0A8FH         PUBLIC        Music_three
  D:0080H         PUBLIC        P0
  D:0008H         PUBLIC        length
  B:00A8H.7       PUBLIC        EA
  C:0A2DH         PUBLIC        table
  B:00A0H.0       PUBLIC        P2_0
  B:00A0H.1       PUBLIC        P2_1
  B:00A0H.2       PUBLIC        P2_2
  B:00A0H.5       PUBLIC        P2_5
  C:0800H         PUBLIC        main
  C:0A3DH         PUBLIC        Music_one
  D:0089H         PUBLIC        TMOD
  C:0C78H         PUBLIC        Time0_Init
  C:0A70H         PUBLIC        Music_two
  B:00A8H.1       PUBLIC        ET0
  D:008CH         PUBLIC        TH0
  D:000FH         PUBLIC        sth
  D:008AH         PUBLIC        TL0
  D:0010H         PUBLIC        stl
  B:0088H.4       PUBLIC        TR0
  D:0011H         PUBLIC        yinfu1
  C:0C88H         PUBLIC        time0
  C:0AC2H         PUBLIC        Music_Code
  D:003BH         PUBLIC        i
  D:003DH         PUBLIC        j
  -------         PROC          TIME0_INIT
  C:0C78H         LINE#         56
  C:0C78H         LINE#         57
  C:0C78H         LINE#         58
  C:0C7BH         LINE#         59
  C:0C7EH         LINE#         60
  C:0C81H         LINE#         61
  C:0C83H         LINE#         62
  C:0C85H         LINE#         63
  C:0C87H         LINE#         64
  -------         ENDPROC       TIME0_INIT
  -------         PROC          MAIN
  C:0800H         LINE#         65
  C:0800H         LINE#         66
  C:0800H         LINE#         67
  C:0803H         LINE#         68
  C:0803H         LINE#         69
  C:0803H         LINE#         70
  C:0809H         LINE#         71
  C:0809H         LINE#         72
BL51 BANKED LINKER/LOCATER V6.22.2.0                                                  11/26/2021  15:20:57  PAGE 3


  C:0810H         LINE#         73
  C:0816H         LINE#         74
  C:0816H         LINE#         75
  C:081DH         LINE#         76
  C:0833H         LINE#         77
  C:0833H         LINE#         78
  C:0863H         LINE#         79
  C:0873H         LINE#         80
  C:087BH         LINE#         81
  C:087DH         LINE#         82
  C:08A0H         LINE#         83
  C:08A2H         LINE#         84
  C:08ADH         LINE#         85
  C:08ADH         LINE#         86
  C:08ADH         LINE#         87
  C:08B0H         LINE#         88
  C:08B7H         LINE#         89
  C:08BAH         LINE#         90
  C:08BAH         LINE#         91
  C:08BAH         LINE#         92
  C:08BAH         LINE#         93
  C:08BAH         LINE#         94
  C:08C0H         LINE#         95
  C:08C0H         LINE#         96
  C:08C7H         LINE#         97
  C:08CDH         LINE#         98
  C:08CDH         LINE#         99
  C:08D4H         LINE#         100
  C:08EAH         LINE#         101
  C:08EAH         LINE#         102
  C:091AH         LINE#         103
  C:092AH         LINE#         104
  C:0932H         LINE#         105
  C:0934H         LINE#         106
  C:0957H         LINE#         107
  C:0959H         LINE#         108
  C:0964H         LINE#         110
  C:0964H         LINE#         111
  C:0964H         LINE#         112
  C:0967H         LINE#         113
  C:096EH         LINE#         114
  C:0971H         LINE#         115
  C:0971H         LINE#         116
  C:0971H         LINE#         117
  C:0971H         LINE#         118
  C:0971H         LINE#         119
  C:0977H         LINE#         120
  C:0977H         LINE#         121
  C:097EH         LINE#         122
  C:0984H         LINE#         123
  C:0984H         LINE#         124
  C:098BH         LINE#         125
  C:09A1H         LINE#         126
  C:09A1H         LINE#         127
  C:09D1H         LINE#         128
  C:09E1H         LINE#         129
  C:09E9H         LINE#         130
BL51 BANKED LINKER/LOCATER V6.22.2.0                                                  11/26/2021  15:20:57  PAGE 4


  C:09EBH         LINE#         131
  C:0A0EH         LINE#         132
  C:0A10H         LINE#         133
  C:0A1BH         LINE#         135
  C:0A1BH         LINE#         136
  C:0A1BH         LINE#         137
  C:0A1EH         LINE#         138
  C:0A25H         LINE#         139
  -------         ENDPROC       MAIN
  -------         PROC          TIME0
  C:0C88H         LINE#         148
  C:0C88H         LINE#         150
  C:0C8AH         LINE#         151
  C:0C8DH         LINE#         152
  C:0C90H         LINE#         153
  C:0C90H         LINE#         154
  C:0C92H         LINE#         155
  -------         ENDPROC       TIME0
  -------         ENDMOD        MAIN

  -------         MODULE        DELAY
  C:0000H         SYMBOL        _ICE_DUMMY_
  C:0C63H         PUBLIC        _Delay
  -------         PROC          _DELAY
  D:0006H         SYMBOL        xms
  -------         DO            
  D:0005H         SYMBOL        i
  D:0004H         SYMBOL        j
  -------         ENDDO         
  C:0C63H         LINE#         3
  C:0C63H         LINE#         4
  C:0C63H         LINE#         6
  C:0C6DH         LINE#         7
  C:0C6DH         LINE#         8
  C:0C6FH         LINE#         9
  C:0C71H         LINE#         11
  C:0C71H         LINE#         12
  C:0C73H         LINE#         13
  C:0C75H         LINE#         14
  C:0C77H         LINE#         16
  -------         ENDPROC       _DELAY
  -------         ENDMOD        DELAY

  -------         MODULE        NIXIE
  C:0000H         SYMBOL        _ICE_DUMMY_
  C:0B5EH         PUBLIC        _Nixie
  D:0080H         PUBLIC        P0
  B:00A0H.2       PUBLIC        P2_2
  B:00A0H.3       PUBLIC        P2_3
  B:00A0H.4       PUBLIC        P2_4
  D:003FH         PUBLIC        NixieTable
  -------         PROC          _NIXIE
  D:0007H         SYMBOL        Location
  D:0004H         SYMBOL        Number
  C:0B5EH         LINE#         6
  C:0B5EH         LINE#         7
  C:0B5EH         LINE#         8
BL51 BANKED LINKER/LOCATER V6.22.2.0                                                  11/26/2021  15:20:57  PAGE 5


  C:0B8BH         LINE#         9
  C:0B8BH         LINE#         10
  C:0B8FH         LINE#         11
  C:0B93H         LINE#         12
  C:0B97H         LINE#         13
  C:0B9BH         LINE#         14
  C:0BA3H         LINE#         15
  C:0BABH         LINE#         16
  C:0BB3H         LINE#         17
  C:0BB9H         LINE#         18
  C:0BB9H         LINE#         19
  C:0BC0H         LINE#         20
  C:0BC7H         LINE#         21
  C:0BCAH         LINE#         22
  -------         ENDPROC       _NIXIE
  -------         ENDMOD        NIXIE

  -------         MODULE        ?C?UIDIV
  C:0BCBH         PUBLIC        ?C?UIDIV
  -------         ENDMOD        ?C?UIDIV

*** WARNING L16: UNCALLED SEGMENT, IGNORED FOR OVERLAY PROCESS
    SEGMENT: ?PR?_NIXIE?NIXIE

******************************************************************************
* RESTRICTED VERSION WITH 0800H BYTE CODE SIZE LIMIT; USED: 03B4H BYTE (46%) *
******************************************************************************

Program Size: data=74.0 xdata=0 code=1177
LINK/LOCATE RUN COMPLETE.  1 WARNING(S),  0 ERROR(S)
