:10094C000004000400041602180219061802190407
:10095C001D04180C110211021606140216041904B7
:10096C00140C1104120611021204190411080002CD
:10097C001902190219021806130213041804180894
:10098C000004160218021906180219041D04FF00AF
:10099C00042002220220021D021B021D021B02194E
:1009AC0002160216021B021D021B0219021402146B
:0609BC00021B021D02FFF8
:100A9000204A0A000018B8F8F3F95BF9B8FA15FA19
:100AA00067FAB9FB04FB4BFB90FBCFFC10FC44FC4A
:100AB00079FCACFCDCFD09FD34FD5CFD82FDA6FD8E
:100AC000C8FDE8FE06FE22FE3DFE56FE6EFE85FED9
:0D0AD0009AFEAEFEC1FED3FEE4FEF4FF036D
:10080000120B3E20A0597F147E00120B5520A03EF3
:100810007D017C007F011209C2E50925E0240AF868
:10082000E6FE08E6F44E602AE50890094C93F509C7
:100830000508E5089375F07DA4FFAEF0120B550591
:1008400008C28C7F057E00120B55D28C8004C28CAE
:1008500080FE30A0FD7F147E00120B5530A0F320E7
:10086000A1A17F147E00120B557D027C007F021235
:1008700009C220A135E50925E0240AF8E6FE08E6CC
:10088000F44E602AE50890099B93F5090508E508F0
:100890009375F07DA4FFAEF0120B550508C28C7F56
:1008A000057E00120B55D28C8004C28C80FE30A1D4
:1008B000FD7F147E00120B5530A10302080380EE69
:03000B00020AEAFC
:100AEA00C0E0C0D075D000C000C006E50925E024EA
:100AFA000AF8E6FE08E64E6010E50925E0240AF841
:100B0A00E6FE08E6F58AEEF58CD006D000D0D0D005
:020B1A00E032C7
:100B5500EF1FAC0670011E4C600A7D027CEFDCFEC7
:040B6500DDFC80EC47
:010B69002269
:100A2F00E4F55E20B1137F14FE120B5530B1FD7F3C
:100A3F00147E00120B55755E0120B0147F147E00DA
:100A4F00120B5530B0FD7F147E00120B55755E02F0
:100A5F0020B2147F147E00120B5530B2FD7F147E2E
:100A6F0000120B55755E0320B3147F147E00120B1A
:100A7F005530B3FD7F147E00120B55755E04AF5ECB
:010A8F002244
:0C0ADD000A543F065B4F666D7D077F6F7B
:1009C200EF14B4080050549009D775F003A4C583FE
:1009D20025F0C583730209EF0209F30209F7020940
:1009E200FB0209FF020A07020A0F020A17D2A480B9
:1009F2000ED2A48012D2A48016D2A4801AC2A4D28B
:100A0200A3D2A28016C2A4D2A3C2A2800EC2A4C242
:100A1200A3D2A28006C2A4C2A3C2A274542DF8E635
:0D0A2200F5807F017E00120B55E4F5802267
:100B3E005389F0438901758A18758CFCC28DD28C4D
:070B4E00D2A9D2AFC2B92207
:050B6A00007FF7DFFE33
:010B6F002263
:040B1C00AD07AC066F
:100B2000E4FBFAED25E0FFEC33FEC3EB9FEA9E50B9
:0D0B30000CB295120B6A0BBB00010A80E6A7
:010B3D002295
:030000000208C033
:0C08C000787FE4F6D8FD75815E02090720
:1008CC00020800E493A3F8E493A34003F68001F23A
:1008DC0008DFF48029E493A3F85407240CC8C3332D
:1008EC00C4540F4420C8834004F456800146F6DFFC
:1008FC00E4800B0102040810204080900A90E47EF2
:10090C00019360BCA3FF543F30E509541FFEE493F0
:10091C00A360010ECF54C025E060A840B8E493A3B7
:10092C00FAE493A3F8E493A3C8C582C8CAC583CAE2
:10093C00F0A3C8C582C8CAC583CADFE9DEE780BE9A
:010AE900000C
:00000001FF
