:10080000F2F3F5F5F6F7F8F9F9FAFAFBFBFCFCFC64
:10081000FDFDFDFDFEFEFEFEFEFEFEFF42C117B623
:10082000D0D1B621E18CD868E95B8FEE446BB4F48B
:100830002D4777A2B6DAFA1600020201020105027C
:10084000020502010502020502010502020302017E
:100850000302020302010302020302010402020571
:100860000201020203010203050202050201050260
:10087000020502010502020302010502020502014E
:100880000302020302010302020502010202030144
:10089000020303020602020103020602020103022E
:1008A0000305020305020605020102020601020118
:1008B000020206010201050202010203010202070F
:1008C0000103010203010203020101030203030207
:1008D00001050203050201010203020203010203F2
:1008E00007020101020301020302020103020301E4
:1008F00003010702030702010102030102010202D0
:1009000003020201010203070201010203010202C4
:1009100001020301020103020303020103020303B4
:1009200002010202030202010102030202030002A9
:100930000300020300020201020105020305020195
:100940000502030502010502030602010302030278
:10095000020103020303020303020201030307026D
:100960000205020305020105020307020103020357
:100970000202010302030202010202030202010158
:100980000203070103010203070201050103030239
:100990000302020102020301020101020302020436
:1009A000010201030201010201020201010202012E
:1009B000020403020402020401020407010401020A
:1009C00004070104010204050202060202050202F4
:1009D00004020203020202020201020605010601EC
:1009E00002020302020103020702020602030302DB
:1009F0000105020C060202070202060202050202BB
:100A000004020203020202020606010607010206B0
:100A100001020501020502020102030202010302B2
:100A20000C0502020602020502020402020302028F
:100A3000020202010206050106010202030202018E
:100A4000030207020202030301030106020C010371
:100A5000020702020602020502060602020502025F
:100A60000402020302060802020203020303020256
:100A70000302080202060202070202060203030240
:100A80000105020C08020202030203030202030230
:100A9000080202060202070202050203030201061F
:100AA000020C05020204020203020202020607010E
:100AB0000206010205010203020604020602020404
:100AC00001020201020A01030202030203030301FD
:100AD00003020602020602020203030702030502E2
:100AE00002030202030203070203060203050202D5
:100AF00001020201020305020303020602020203CD
:100B000002020402040103030702010702010103B8
:100B100002050204040203030202040201040204A7
:100B20000103030702010702010602010502050194
:100B30000302020302030303010302060202060288
:100B40000302030307020305020203020203020376
:100B50000702030602030502020102020102030565
:100B60000203030206020202030202040204050257
:100B70000304020204020205020203020305020347
:100B8000010303030303020304020302020302013D
:100B90000303010302010306000203000203000233
:100BA0000300020300020300020301030202030226
:100BB0000303030103020602020602030203030702
:100BC00002030502020302020302030702030602F4
:100BD00003050202010202010203050203030204EB
:100BE00002020203020204020401030307020201DB
:100BF00003020502040402030302030402010402C7
:100C000004010303070202070202060202050205AD
:100C100001030202030203030301030206020206A8
:100C20000203020303070203050202030202030296
:100C30000307020306020305020201020201020386
:030C4000050203A7
:040F4A007FE87E03BB
:0B0F4E00EF1FAC0670011E4C70F62275
:100ECA00E4F509F50A20B10F120F4A20B106750997
:100EDA0000750A0130B1FDE50A6401450970037F16
:050EEA0001227F00223F
:100EEF00E4F509F50A20B00F120F4A20B006750974
:100EFF0000750A0130B0FDE50A6401450970037FF2
:050F0F0001227F002219
:100F1400E4F509F50A20B20F120F4A20B20675094A
:100F240000750A0130B2FDE50A6401450970037FCA
:050F340001227F0022F4
:03000B00020F5988
:0D0F5900C28CB295850B8C850C8AD28C322F
:040E5800D295AF0878
:020E5C008F15F0
:100E5E00E4F516E516C395155039E4F51AF519F5AE
:100E6E0018F517E47FCD7E0AFDFCAB1AAA19A91856
:100E7E00A817C3120F395017E51A2401F51AE435D5
:100E8E0019F519E43518F518E43517F51780D4055A
:050E9E001680C0C28CAB
:010EA300222C
:0D0F6600758C00758A1CD28CAF08020E5CE1
:100C4300E4F510F50FF50EF50D750801E5087003D1
:100C5300020CFCAC0FAD1074392DF58274083CF511
:100C630083E49375F007A4FF74382DF58274083C70
:100C7300F583E493FB7A002FFFEA35F0CF24FFCF0F
:100C830034FFFE3395E08F148E13F512F511EF90B8
:100C9300080093F50BEF90081C93F50C743A25109C
:100CA300F5827408350FF583E493F508EB601A12A7
:100CB3000F66E5102403F510E4350FF50FE4350E48
:100CC300F50EE4350DF50D801B120E58E5102403C7
:100CD300F510E4350FF50FE4350EF50EE4350DF59B
:100CE3000D020C56120F14EF6401600B120EEFEF9E
:090CF30064016003020C4FD2956C
:010CFC0022D5
:100DB700E4F510F50FF50EF50D750801E50870035C
:100DC700020E57AD10ED9009C89375F007A4FFED1B
:100DD7009009C793FB7A002FFFEA35F0CF24FFCFA6
:100DE70034FFFE3395E08F148E13F512F511EF9053
:100DF700080093F50BEF90081C93F50CE51090098C
:100E0700C993F508EB601A120F66E5102403F51075
:100E1700E4350FF50FE4350EF50EE4350DF50D80CD
:100E27001A120E58E5102403F510E4350FF50FE4F8
:100E3700350EF50EE4350DF50D8088120ECAEF64F8
:100E470001600B120F14EF64016003020DC3D2950A
:010E57002278
:100CFD00E4F510F50FF50EF50D750801E508700317
:100D0D00020DB6AC0FAD1074C72DF582740A3CF50B
:100D1D0083E49375F007A4FF74C62DF582740A3C25
:100D2D00F583E493FB7A002FFFEA35F0CF24FFCF54
:100D3D0034FFFE3395E08F148E13F512F511EF90FD
:100D4D00080093F50BEF90081C93F50C74C8251053
:100D5D00F582740A350FF583E493F508EB601A12EA
:100D6D000F66E5102403F510E4350FF50FE4350E8D
:100D7D00F50EE4350DF50D801B120E58E51024030C
:100D8D00F510E4350FF50FE4350EF50EE4350DF5E0
:100D9D000D020D10120ECAEF6401600B120EEFEF73
:090DAD0064016003020D09D295F6
:010DB600221A
:100EA400758901D2A9D2AFD295120ECAEF6003128E
:100EB4000C43120EEFEF6003120DB7120F14EF6024
:060EC400E6120CFD80E1C6
:03000000020F7379
:0C0F7300787FE4F6D8FD75811A020EA408
:100F3900EB9FF5F0EA9E42F0E99D42F0E89C45F00E
:010F49002285
:00000001FF
