:100A2D0018DE3494D29111DC1090501339163171B7
:100A3D0017021703180319021503160317031703DB
:100A4D0017031803190216031703180218031703C7
:100A5D0015021803170318021003150316021503C8
:100A6D001603FF0F0115021602176618031702155C
:100A7D000216011502100215000F011502160217BC
:100A8D0002FF1703160317011603170316031501AB
:100A9D00100315031602160D170316031503100385
:100AAD00100E15040F011703160317011603170374
:100ABD0016031501FFF88BF95BFA14FA66FB03FBBD
:050ACD008FFC0BFDEEA3
:100C2000202A11F88BF95BFA14FA66FB03FB8FFCA0
:100C30000BFC43FCABFD08FD33FD81FDC7FE05FB4E
:100C400021FE55FE84FE99FEC0FEE3FF0207080167
:060C500002040810204020
:100C7800758901850F8C85108AD2A9D2AFC28C22C2
:10080000120C7830A0030208BA7F0A7E00120C6333
:1008100030A0030208BA900A37E493F580E4F53B70
:10082000F53C743D253CF582740A353BF583E49331
:10083000F4607A743D253CF582740A353BF583E417
:1008400093FF75F06484E5F075F00A84FE75F00E90
:10085000A42401F8EF75F00A84AFF0EF25E028F842
:10086000E6F50FEE75F00EA42402F8EF25E028F867
:10087000E6F510053CE53C7002053BD28C243DF5C5
:1008800082740A353BF583E49375F00A8474082575
:10089000F0F8E6FD7C007E077FD0120BCB120C63D4
:1008A000C28C053CE53C7002053B02082230A0FDED
:1008B0007F0A7E00120C6330A0F330A1030209719D
:1008C0007F0A7E00120C6330A103020971900A387E
:1008D000E493F580E4F53BF53C7470253CF58274B7
:1008E0000A353BF583E493F4607A7470253CF58215
:1008F000740A353BF583E493FF75F06484E5F07585
:10090000F00A84FE75F00EA42401F8EF75F00A8455
:10091000AFF0EF25E028F8E6F50FEE75F00EA42411
:1009200002F8EF25E028F8E6F510053CE53C7002FA
:10093000053BD28C2470F582740A353BF583E49331
:1009400075F00A84740825F0F8E6FD7C007E077FC8
:10095000D0120BCB120C63C28C053CE53C70020537
:100960003B0208D930A1FD7F0A7E00120C6330A142
:10097000F330A2030208037F0A7E00120C6330A248
:1009800003020803900A39E493F580E4F53BF53C53
:10099000748F253CF582740A353BF583E493F4604B
:1009A0007A748F253CF582740A353BF583E493FF16
:1009B00075F06484E5F075F00A84FE75F00EA424E9
:1009C00001F8EF75F00A84AFF0EF25E028F8E6F5BE
:1009D0000FEE75F00EA42402F8EF25E028F8E6F5F6
:1009E00010053CE53C7002053BD28C248FF58274E7
:1009F0000A353BF583E49375F00A84740825F0F812
:100A0000E6FD7C007E077FD0120BCB120C63C28CFC
:100A1000053CE53C7002053B02099030A2FD7F0ACF
:0D0A20007E00120C6330A20302080380EE7A
:03000B00020C885C
:0B0C8800C28C850F8C85108AD28C3244
:100C6300EF1FAC0670011E4C600A7D027CEFDCFEB8
:040C7300DDFC80EC38
:010C7700225A
:0C0C56000A3F3F065B4F666D7D077F6F15
:100B5E00EF14B408005054900B7375F003A4C583C2
:100B6E0025F0C58373020B8B020B8F020B93020BC6
:100B7E0097020B9B020BA3020BAB020BB3D2A4800A
:100B8E000ED2A48012D2A48016D2A4801AC2A4D2ED
:100B9E00A3D2A28016C2A4D2A3C2A2800EC2A4C2A5
:100BAE00A3D2A28006C2A4C2A3C2A2743F2DF8E6AD
:0D0BBE00F5807F017E00120C63E4F58022BB
:03000000020AD21F
:0C0AD200787FE4F6D8FD758148020B190E
:100BCB00BC000BBE0029EF8DF084FFADF022E4CC0E
:100BDB00F875F008EF2FFFEE33FEEC33FCEE9DECD7
:100BEB00984005FCEE9DFE0FD5F0E9E4CEFD22ED1D
:100BFB00F8F5F0EE8420D21CFEADF075F008EF2F67
:100C0B00FFED33FD4007985006D5F0F222C398FD57
:050C1B000FD5F0EA22F4
:100ADE00020800E493A3F8E493A34003F68001F226
:100AEE0008DFF48029E493A3F85407240CC8C33319
:100AFE00C4540F4420C8834004F456800146F6DFE8
:100B0E00E4800B0102040810204080900C20E47E4B
:100B1E00019360BCA3FF543F30E509541FFEE493DC
:100B2E00A360010ECF54C025E060A840B8E493A3A3
:100B3E00FAE493A3F8E493A3C8C582C8CAC583CACE
:100B4E00F0A3C8C582C8CAC583CADFE9DEE780BE86
:010C62000091
:00000001FF
